{
  "contractName": "DTeam",
  "abi": [
    {
      "inputs": [],
      "stateMutability": "nonpayable",
      "type": "constructor"
    },
    {
      "inputs": [],
      "name": "owner",
      "outputs": [
        {
          "internalType": "address",
          "name": "",
          "type": "address"
        }
      ],
      "stateMutability": "view",
      "type": "function"
    },
    {
      "inputs": [
        {
          "internalType": "uint256",
          "name": "",
          "type": "uint256"
        }
      ],
      "name": "team",
      "outputs": [
        {
          "internalType": "string",
          "name": "",
          "type": "string"
        }
      ],
      "stateMutability": "view",
      "type": "function"
    },
    {
      "inputs": [
        {
          "internalType": "string",
          "name": "_name",
          "type": "string"
        }
      ],
      "name": "setNewMember",
      "outputs": [],
      "stateMutability": "nonpayable",
      "type": "function"
    },
    {
      "inputs": [],
      "name": "getTeamMembers",
      "outputs": [
        {
          "internalType": "string[]",
          "name": "",
          "type": "string[]"
        }
      ],
      "stateMutability": "view",
      "type": "function"
    }
  ],
  "bytecode": "0x608060405234801561001057600080fd5b5033600160006101000a81548173ffffffffffffffffffffffffffffffffffffffff021916908373ffffffffffffffffffffffffffffffffffffffff16021790555061088e806100616000396000f3fe608060405234801561001057600080fd5b506004361061004c5760003560e01c8063197ebd53146100515780632ede36b8146100815780638da5cb5b1461009d578063efded147146100bb575b600080fd5b61006b6004803603810190610066919061048b565b6100d9565b60405161007891906105ff565b60405180910390f35b61009b60048036038101906100969190610442565b610185565b005b6100a561021b565b6040516100b291906105c2565b60405180910390f35b6100c3610241565b6040516100d091906105dd565b60405180910390f35b600081815481106100e957600080fd5b9060005260206000200160009150905080546101049061075b565b80601f01602080910402602001604051908101604052809291908181526020018280546101309061075b565b801561017d5780601f106101525761010080835404028352916020019161017d565b820191906000526020600020905b81548152906001019060200180831161016057829003601f168201915b505050505081565b600160009054906101000a900473ffffffffffffffffffffffffffffffffffffffff1673ffffffffffffffffffffffffffffffffffffffff163373ffffffffffffffffffffffffffffffffffffffff1614156102185760008190806001815401808255809150506001900390600052602060002001600090919091909150908051906020019061021692919061031a565b505b50565b600160009054906101000a900473ffffffffffffffffffffffffffffffffffffffff1681565b60606000805480602002602001604051908101604052809291908181526020016000905b828210156103115783829060005260206000200180546102849061075b565b80601f01602080910402602001604051908101604052809291908181526020018280546102b09061075b565b80156102fd5780601f106102d2576101008083540402835291602001916102fd565b820191906000526020600020905b8154815290600101906020018083116102e057829003601f168201915b505050505081526020019060010190610265565b50505050905090565b8280546103269061075b565b90600052602060002090601f016020900481019282610348576000855561038f565b82601f1061036157805160ff191683800117855561038f565b8280016001018555821561038f579182015b8281111561038e578251825591602001919060010190610373565b5b50905061039c91906103a0565b5090565b5b808211156103b95760008160009055506001016103a1565b5090565b60006103d06103cb84610646565b610621565b9050828152602081018484840111156103ec576103eb610821565b5b6103f7848285610719565b509392505050565b600082601f8301126104145761041361081c565b5b81356104248482602086016103bd565b91505092915050565b60008135905061043c81610841565b92915050565b6000602082840312156104585761045761082b565b5b600082013567ffffffffffffffff81111561047657610475610826565b5b610482848285016103ff565b91505092915050565b6000602082840312156104a1576104a061082b565b5b60006104af8482850161042d565b91505092915050565b60006104c48383610550565b905092915050565b6104d5816106dd565b82525050565b60006104e682610687565b6104f081856106aa565b93508360208202850161050285610677565b8060005b8581101561053e578484038952815161051f85826104b8565b945061052a8361069d565b925060208a01995050600181019050610506565b50829750879550505050505092915050565b600061055b82610692565b61056581856106bb565b9350610575818560208601610728565b61057e81610830565b840191505092915050565b600061059482610692565b61059e81856106cc565b93506105ae818560208601610728565b6105b781610830565b840191505092915050565b60006020820190506105d760008301846104cc565b92915050565b600060208201905081810360008301526105f781846104db565b905092915050565b600060208201905081810360008301526106198184610589565b905092915050565b600061062b61063c565b9050610637828261078d565b919050565b6000604051905090565b600067ffffffffffffffff821115610661576106606107ed565b5b61066a82610830565b9050602081019050919050565b6000819050602082019050919050565b600081519050919050565b600081519050919050565b6000602082019050919050565b600082825260208201905092915050565b600082825260208201905092915050565b600082825260208201905092915050565b60006106e8826106ef565b9050919050565b600073ffffffffffffffffffffffffffffffffffffffff82169050919050565b6000819050919050565b82818337600083830152505050565b60005b8381101561074657808201518184015260208101905061072b565b83811115610755576000848401525b50505050565b6000600282049050600182168061077357607f821691505b60208210811415610787576107866107be565b5b50919050565b61079682610830565b810181811067ffffffffffffffff821117156107b5576107b46107ed565b5b80604052505050565b7f4e487b7100000000000000000000000000000000000000000000000000000000600052602260045260246000fd5b7f4e487b7100000000000000000000000000000000000000000000000000000000600052604160045260246000fd5b600080fd5b600080fd5b600080fd5b600080fd5b6000601f19601f8301169050919050565b61084a8161070f565b811461085557600080fd5b5056fea264697066735822122072efa5546f637d7395de5de3a45ef315153203f82dd6b2aa6a66f251b4c65c7a64736f6c63430008060033",
  "immutableReferences": {},
  "source": "// SPDX-License-Identifier: MIT\npragma solidity ^0.8.2;\npragma abicoder v2;\n\ncontract DTeam {\n    string[] public team;\n    address public owner;\n\n    modifier restricted() {\n        if (msg.sender == owner) _;\n    }\n\n    constructor() {\n        owner = msg.sender;\n    }\n\n\tfunction setNewMember(string memory _name) public restricted {\n\t\tteam.push(_name);\n\t}\n\n    function getTeamMembers() public view returns (string[] memory) {\n        return team;\n    }\n}\n",
  "sourcePath": "/var/www/blockchain/Metacoin/contracts/DTeam.sol",
  "compiler": {
    "name": "solc",
    "version": "0.8.6+commit.11564f7e.Emscripten.clang"
  },
  "schemaVersion": "3.4.1",
  "updatedAt": "2021-06-26T09:02:49.023Z",
  "devdoc": {
    "kind": "dev",
    "methods": {},
    "version": 1
  },
  "userdoc": {
    "kind": "user",
    "methods": {},
    "version": 1
  }
}